:020000040800F2
:10000000005000206F010008690100086901000824
:10001000690100086901000869010008000000008A
:10002000000000000000000000000000690100085E
:10003000690100080000000069010008690100086A
:1000400069010008690100086901000869010008E8
:1000500069010008690100086901000869010008D8
:1000600069010008690100086901000869010008C8
:1000700069010008690100086901000869010008B8
:1000800069010008690100086901000869010008A8
:100090006901000869010008690100086901000898
:1000A0006901000869010008690100086901000888
:1000B0006901000869010008690100086901000878
:1000C0006901000869010008690100086901000868
:1000D0006901000869010008690100086901000858
:1000E0006901000869010008690100086901000848
:1000F0006901000869010008690100086901000838
:100100006901000869010008690100086901000827
:100110006901000869010008690100086901000817
:100120006901000869010008690100086901000807
:100130006901000880B500AF00F05CF800F09AF8A3
:1001400000F0D4F80346002B03D1054800F0DAF89C
:1001500002E0044800F0D6F800F0A8F8F0E700BF8D
:10016000FFFF3F00FFFF0F0080B400AFFEE780B548
:1001700086B000AF1A4A1B4BD31A7B60194B7B61C8
:10018000194B3B610023FB600AE03A69531C3B6159
:100190007B69591C796112781A70FB680133FB6026
:1001A000FA687B689A42F0D3104A114BD31A7B60ED
:1001B0000F4B7B610023BB6007E07B695A1C7A61AF
:1001C00000221A70BB680133BB60BA687B689A4230
:1001D000F3D3FFF7AFFF00BF1837BD4680BD00BFA8
:1001E000000000200000002028030008000000207C
:1001F0000000002080B400AF1C4B1B681B4A43F07A
:10020000080313601A4B1B68194A43F0807313608C
:10021000174B1B68164A23F000731360144B1B68BE
:10022000134A43F080631360114B1B68104A23F09C
:10023000006313600E4B1B680D4A43F0805313603C
:100240000B4B1B680A4A23F000531360084B1B68D2
:10025000074A43F080431360054B1B68044A23F0B0
:100260000043136000BFBD4680BC70473038024079
:10027000000C024080B400AF0A4B1B68094A43F0EF
:1002800001031360084B1B68074A43F08043136067
:10029000054B1B68044A23F00043136000BFBD46B2
:1002A00080BC7047303802400000024080B400AF8C
:1002B0000D4B1B680C4A83F4805313600A4B1B6878
:1002C000094A83F400531360074B1B68064A83F402
:1002D00080431360044B1B68034A83F4004313609C
:1002E00000BFBD4680BC7047140C024080B400AF14
:1002F000034B1B6803F001031846BD4680BC7047E2
:100300001000024080B483B000AF786000E000BF0E
:100310007B685A1E7A60002BF9D100BF00BF0C37F2
:08032000BD4680BC704700BF20
:040000050800016F7F
:00000001FF
